{
  "_format": "hh-sol-artifact-1",
  "contractName": "FlashLoaner",
  "sourceName": "contracts/FlashLoaner.sol",
  "abi": [
    {
      "inputs": [
        {
          "internalType": "address",
          "name": "_dexFactory",
          "type": "address"
        },
        {
          "internalType": "address",
          "name": "_dexRouter",
          "type": "address"
        }
      ],
      "stateMutability": "nonpayable",
      "type": "constructor"
    },
    {
      "inputs": [],
      "name": "dexFactory",
      "outputs": [
        {
          "internalType": "address",
          "name": "",
          "type": "address"
        }
      ],
      "stateMutability": "view",
      "type": "function"
    },
    {
      "inputs": [],
      "name": "dexRouter",
      "outputs": [
        {
          "internalType": "contract IUniswapV2Router02",
          "name": "",
          "type": "address"
        }
      ],
      "stateMutability": "view",
      "type": "function"
    },
    {
      "inputs": [],
      "name": "owner",
      "outputs": [
        {
          "internalType": "address",
          "name": "",
          "type": "address"
        }
      ],
      "stateMutability": "view",
      "type": "function"
    },
    {
      "inputs": [
        {
          "internalType": "address",
          "name": "_dexFactory",
          "type": "address"
        },
        {
          "internalType": "address",
          "name": "_dexRouter",
          "type": "address"
        }
      ],
      "name": "setDEX",
      "outputs": [],
      "stateMutability": "nonpayable",
      "type": "function"
    },
    {
      "inputs": [
        {
          "internalType": "address",
          "name": "newOwner",
          "type": "address"
        }
      ],
      "name": "setOwner",
      "outputs": [],
      "stateMutability": "nonpayable",
      "type": "function"
    },
    {
      "inputs": [
        {
          "internalType": "address",
          "name": "_sender",
          "type": "address"
        },
        {
          "internalType": "uint256",
          "name": "_amount0",
          "type": "uint256"
        },
        {
          "internalType": "uint256",
          "name": "_amount1",
          "type": "uint256"
        },
        {
          "internalType": "bytes",
          "name": "_data",
          "type": "bytes"
        }
      ],
      "name": "uniswapV2Call",
      "outputs": [],
      "stateMutability": "nonpayable",
      "type": "function"
    }
  ],
  "bytecode": "0x608060405234801561001057600080fd5b50604051611d57380380611d578339818101604052604081101561003357600080fd5b810190808051906020019092919080519060200190929190505050336000806101000a81548173ffffffffffffffffffffffffffffffffffffffff021916908373ffffffffffffffffffffffffffffffffffffffff16021790555061009e82826100a560201b60201c565b50506101ed565b6000809054906101000a900473ffffffffffffffffffffffffffffffffffffffff1673ffffffffffffffffffffffffffffffffffffffff163373ffffffffffffffffffffffffffffffffffffffff1614610167576040517f08c379a000000000000000000000000000000000000000000000000000000000815260040180806020018281038252600b8152602001807f556e6174686f72697a656400000000000000000000000000000000000000000081525060200191505060405180910390fd5b81600160006101000a81548173ffffffffffffffffffffffffffffffffffffffff021916908373ffffffffffffffffffffffffffffffffffffffff16021790555080600260006101000a81548173ffffffffffffffffffffffffffffffffffffffff021916908373ffffffffffffffffffffffffffffffffffffffff1602179055505050565b611b5b806101fc6000396000f3fe608060405234801561001057600080fd5b50600436106100625760003560e01c80630758d9241461006757806310d1e85c146100b157806313af40351461015e57806344016bbd146101a25780638da5cb5b14610206578063b8d8fbb414610250575b600080fd5b61006f61029a565b604051808273ffffffffffffffffffffffffffffffffffffffff1673ffffffffffffffffffffffffffffffffffffffff16815260200191505060405180910390f35b61015c600480360360808110156100c757600080fd5b81019080803573ffffffffffffffffffffffffffffffffffffffff16906020019092919080359060200190929190803590602001909291908035906020019064010000000081111561011857600080fd5b82018360208201111561012a57600080fd5b8035906020019184600183028401116401000000008311171561014c57600080fd5b90919293919293905050506102c0565b005b6101a06004803603602081101561017457600080fd5b81019080803573ffffffffffffffffffffffffffffffffffffffff169060200190929190505050610c01565b005b610204600480360360408110156101b857600080fd5b81019080803573ffffffffffffffffffffffffffffffffffffffff169060200190929190803573ffffffffffffffffffffffffffffffffffffffff169060200190929190505050610d06565b005b61020e610e4e565b604051808273ffffffffffffffffffffffffffffffffffffffff1673ffffffffffffffffffffffffffffffffffffffff16815260200191505060405180910390f35b610258610e73565b604051808273ffffffffffffffffffffffffffffffffffffffff1673ffffffffffffffffffffffffffffffffffffffff16815260200191505060405180910390f35b600260009054906101000a900473ffffffffffffffffffffffffffffffffffffffff1681565b6060600267ffffffffffffffff811180156102da57600080fd5b506040519080825280602002602001820160405280156103095781602001602082028036833780820191505090505b509050600080861461031b578561031d565b845b905060003373ffffffffffffffffffffffffffffffffffffffff16630dfe16816040518163ffffffff1660e01b815260040160206040518083038186803b15801561036757600080fd5b505afa15801561037b573d6000803e3d6000fd5b505050506040513d602081101561039157600080fd5b8101908080519060200190929190505050905060003373ffffffffffffffffffffffffffffffffffffffff1663d21220a76040518163ffffffff1660e01b815260040160206040518083038186803b1580156103ec57600080fd5b505afa158015610400573d6000803e3d6000fd5b505050506040513d602081101561041657600080fd5b810190808051906020019092919050505090506104686040518060400160405280600e81526020017f53656e646572206164647265737300000000000000000000000000000000000081525033610e99565b6104d36040518060400160405280600c81526020017f50616972206164647265737300000000000000000000000000000000000000008152506104ce600160009054906101000a900473ffffffffffffffffffffffffffffffffffffffff168585610fcc565b610e99565b6105126040518060400160405280600681526020017f746f6b656e30000000000000000000000000000000000000000000000000000081525083610e99565b6105516040518060400160405280600681526020017f746f6b656e31000000000000000000000000000000000000000000000000000081525082610e99565b61057e600160009054906101000a900473ffffffffffffffffffffffffffffffffffffffff168383610fcc565b73ffffffffffffffffffffffffffffffffffffffff163373ffffffffffffffffffffffffffffffffffffffff1614610601576040517f08c379a0000000000000000000000000000000000000000000000000000000008152600401808060200182810382526048815260200180611ade6048913960600191505060405180910390fd5b60008814806106105750600087145b61061957600080fd5b600088146106275781610629565b805b8460008151811061063657fe5b602002602001019073ffffffffffffffffffffffffffffffffffffffff16908173ffffffffffffffffffffffffffffffffffffffff16815250506000881461067e5780610680565b815b8460018151811061068d57fe5b602002602001019073ffffffffffffffffffffffffffffffffffffffff16908173ffffffffffffffffffffffffffffffffffffffff168152505060008089146106d657826106d8565b815b90508073ffffffffffffffffffffffffffffffffffffffff1663095ea7b3600260009054906101000a900473ffffffffffffffffffffffffffffffffffffffff16866040518363ffffffff1660e01b8152600401808373ffffffffffffffffffffffffffffffffffffffff1673ffffffffffffffffffffffffffffffffffffffff16815260200182815260200192505050602060405180830381600087803b15801561078357600080fd5b505af1158015610797573d6000803e3d6000fd5b505050506040513d60208110156107ad57600080fd5b8101908080519060200190929190505050506107fd6040518060400160405280600f81526020017f526f7574657220617070726f7665640000000000000000000000000000000000815250611127565b600061082c600160009054906101000a900473ffffffffffffffffffffffffffffffffffffffff168688611225565b60008151811061083857fe5b602002602001015190506108816040518060400160405280601181526020017f616d6f756e742072657175697265643a20000000000000000000000000000000815250826113a5565b6108c06040518060400160405280600e81526020017f616d6f756e7420746f6b656e3a20000000000000000000000000000000000000815250866113a5565b6000600260009054906101000a900473ffffffffffffffffffffffffffffffffffffffff1673ffffffffffffffffffffffffffffffffffffffff166338ed173987848a33620d2f006040518663ffffffff1660e01b815260040180868152602001858152602001806020018473ffffffffffffffffffffffffffffffffffffffff1673ffffffffffffffffffffffffffffffffffffffff168152602001838152602001828103825285818151815260200191508051906020019060200280838360005b8381101561099e578082015181840152602081019050610983565b505050509050019650505050505050600060405180830381600087803b1580156109c757600080fd5b505af11580156109db573d6000803e3d6000fd5b505050506040513d6000823e3d601f19601f820116820180604052506020811015610a0557600080fd5b8101908080516040519392919084640100000000821115610a2557600080fd5b83820191506020820185811115610a3b57600080fd5b8251866020820283011164010000000082111715610a5857600080fd5b8083526020830192505050908051906020019060200280838360005b83811015610a8f578082015181840152602081019050610a74565b50505050905001604052505050600181518110610aa857fe5b60200260200101519050610af06040518060400160405280600981526020017f73776170206d6164650000000000000000000000000000000000000000000000815250611127565b8273ffffffffffffffffffffffffffffffffffffffff1663a9059cbb8d8484036040518363ffffffff1660e01b8152600401808373ffffffffffffffffffffffffffffffffffffffff1673ffffffffffffffffffffffffffffffffffffffff16815260200182815260200192505050602060405180830381600087803b158015610b7957600080fd5b505af1158015610b8d573d6000803e3d6000fd5b505050506040513d6020811015610ba357600080fd5b810190808051906020019092919050505050610bf36040518060400160405280601181526020017f70726f666974207472616e736665726564000000000000000000000000000000815250611127565b505050505050505050505050565b6000809054906101000a900473ffffffffffffffffffffffffffffffffffffffff1673ffffffffffffffffffffffffffffffffffffffff163373ffffffffffffffffffffffffffffffffffffffff1614610cc3576040517f08c379a000000000000000000000000000000000000000000000000000000000815260040180806020018281038252600b8152602001807f556e6174686f72697a656400000000000000000000000000000000000000000081525060200191505060405180910390fd5b806000806101000a81548173ffffffffffffffffffffffffffffffffffffffff021916908373ffffffffffffffffffffffffffffffffffffffff16021790555050565b6000809054906101000a900473ffffffffffffffffffffffffffffffffffffffff1673ffffffffffffffffffffffffffffffffffffffff163373ffffffffffffffffffffffffffffffffffffffff1614610dc8576040517f08c379a000000000000000000000000000000000000000000000000000000000815260040180806020018281038252600b8152602001807f556e6174686f72697a656400000000000000000000000000000000000000000081525060200191505060405180910390fd5b81600160006101000a81548173ffffffffffffffffffffffffffffffffffffffff021916908373ffffffffffffffffffffffffffffffffffffffff16021790555080600260006101000a81548173ffffffffffffffffffffffffffffffffffffffff021916908373ffffffffffffffffffffffffffffffffffffffff1602179055505050565b6000809054906101000a900473ffffffffffffffffffffffffffffffffffffffff1681565b600160009054906101000a900473ffffffffffffffffffffffffffffffffffffffff1681565b610fc8828260405160240180806020018373ffffffffffffffffffffffffffffffffffffffff1673ffffffffffffffffffffffffffffffffffffffff168152602001828103825284818151815260200191508051906020019080838360005b83811015610f13578082015181840152602081019050610ef8565b50505050905090810190601f168015610f405780820380516001836020036101000a031916815260200191505b5093505050506040516020818303038152906040527f319af333000000000000000000000000000000000000000000000000000000007bffffffffffffffffffffffffffffffffffffffffffffffffffffffff19166020820180517bffffffffffffffffffffffffffffffffffffffffffffffffffffffff83818316178352505050506114ac565b5050565b6000806000610fdb85856114d5565b91509150858282604051602001808373ffffffffffffffffffffffffffffffffffffffff1673ffffffffffffffffffffffffffffffffffffffff1660601b81526014018273ffffffffffffffffffffffffffffffffffffffff1673ffffffffffffffffffffffffffffffffffffffff1660601b8152601401925050506040516020818303038152906040528051906020012060405160200180807fff000000000000000000000000000000000000000000000000000000000000008152506001018373ffffffffffffffffffffffffffffffffffffffff1673ffffffffffffffffffffffffffffffffffffffff1660601b8152601401828152602001807f96e8ac4277198ff8b6f785478aa9a39f403cb768dd02cbee326c3e7da348845f815250602001925050506040516020818303038152906040528051906020012060001c925050509392505050565b611222816040516024018080602001828103825283818151815260200191508051906020019080838360005b8381101561116e578082015181840152602081019050611153565b50505050905090810190601f16801561119b5780820380516001836020036101000a031916815260200191505b50925050506040516020818303038152906040527f41304fac000000000000000000000000000000000000000000000000000000007bffffffffffffffffffffffffffffffffffffffffffffffffffffffff19166020820180517bffffffffffffffffffffffffffffffffffffffffffffffffffffffff83818316178352505050506114ac565b50565b606060028251101561129f576040517f08c379a000000000000000000000000000000000000000000000000000000000815260040180806020018281038252601e8152602001807f556e697377617056324c6962726172793a20494e56414c49445f50415448000081525060200191505060405180910390fd5b815167ffffffffffffffff811180156112b757600080fd5b506040519080825280602002602001820160405280156112e65781602001602082028036833780820191505090505b50905082816001835103815181106112fa57fe5b6020026020010181815250506000600183510390505b600081111561139d576000806113508786600186038151811061132f57fe5b602002602001015187868151811061134357fe5b602002602001015161164c565b9150915061137284848151811061136357fe5b60200260200101518383611775565b84600185038151811061138157fe5b6020026020010181815250505050808060019003915050611310565b509392505050565b6114a882826040516024018080602001838152602001828103825284818151815260200191508051906020019080838360005b838110156113f35780820151818401526020810190506113d8565b50505050905090810190601f1680156114205780820380516001836020036101000a031916815260200191505b5093505050506040516020818303038152906040527f9710a9d0000000000000000000000000000000000000000000000000000000007bffffffffffffffffffffffffffffffffffffffffffffffffffffffff19166020820180517bffffffffffffffffffffffffffffffffffffffffffffffffffffffff83818316178352505050506114ac565b5050565b60008151905060006a636f6e736f6c652e6c6f679050602083016000808483855afa5050505050565b6000808273ffffffffffffffffffffffffffffffffffffffff168473ffffffffffffffffffffffffffffffffffffffff16141561155d576040517f08c379a0000000000000000000000000000000000000000000000000000000008152600401808060200182810382526025815260200180611a706025913960400191505060405180910390fd5b8273ffffffffffffffffffffffffffffffffffffffff168473ffffffffffffffffffffffffffffffffffffffff161061159757828461159a565b83835b8092508193505050600073ffffffffffffffffffffffffffffffffffffffff168273ffffffffffffffffffffffffffffffffffffffff161415611645576040517f08c379a000000000000000000000000000000000000000000000000000000000815260040180806020018281038252601e8152602001807f556e697377617056324c6962726172793a205a45524f5f41444452455353000081525060200191505060405180910390fd5b9250929050565b600080600061165b85856114d5565b50905060008061166c888888610fcc565b73ffffffffffffffffffffffffffffffffffffffff16630902f1ac6040518163ffffffff1660e01b815260040160606040518083038186803b1580156116b157600080fd5b505afa1580156116c5573d6000803e3d6000fd5b505050506040513d60608110156116db57600080fd5b81019080805190602001909291908051906020019092919080519060200190929190505050506dffffffffffffffffffffffffffff1691506dffffffffffffffffffffffffffff1691508273ffffffffffffffffffffffffffffffffffffffff168773ffffffffffffffffffffffffffffffffffffffff161461175f578082611762565b81815b8095508196505050505050935093915050565b60008084116117cf576040517f08c379a000000000000000000000000000000000000000000000000000000000815260040180806020018281038252602c815260200180611a44602c913960400191505060405180910390fd5b6000831180156117df5750600082115b611834576040517f08c379a0000000000000000000000000000000000000000000000000000000008152600401808060200182810382526028815260200180611a956028913960400191505060405180910390fd5b600061185d6103e861184f87876118b290919063ffffffff16565b6118b290919063ffffffff16565b905060006118886103e561187a888761193890919063ffffffff16565b6118b290919063ffffffff16565b90506118a7600182848161189857fe5b046119bb90919063ffffffff16565b925050509392505050565b6000808314156118c55760009050611932565b60008284029050828482816118d657fe5b041461192d576040517f08c379a0000000000000000000000000000000000000000000000000000000008152600401808060200182810382526021815260200180611abd6021913960400191505060405180910390fd5b809150505b92915050565b6000828211156119b0576040517f08c379a000000000000000000000000000000000000000000000000000000000815260040180806020018281038252601e8152602001807f536166654d6174683a207375627472616374696f6e206f766572666c6f77000081525060200191505060405180910390fd5b818303905092915050565b600080828401905083811015611a39576040517f08c379a000000000000000000000000000000000000000000000000000000000815260040180806020018281038252601b8152602001807f536166654d6174683a206164646974696f6e206f766572666c6f77000000000081525060200191505060405180910390fd5b809150509291505056fe556e697377617056324c6962726172793a20494e53554646494349454e545f4f55545055545f414d4f554e54556e697377617056324c6962726172793a204944454e544943414c5f414444524553534553556e697377617056324c6962726172793a20494e53554646494349454e545f4c4951554944495459536166654d6174683a206d756c7469706c69636174696f6e206f766572666c6f77556e617574686f72697a65643a206164647265737320646f6573206e6f74206d6174636820746f6b656e207061697220636865636b20796f7572206465782073657474696e67732ea2646970667358221220510a0312dac4971ddf0ae54d286215d03d1c5f161735261c7c5e5eb2ccec8e8564736f6c63430006060033",
  "linkReferences": {},
  "deployedLinkReferences": {}
}